:020000040800F2
:1000000000000220CD0E00081D0F00085D2400082E
:100010001D0F00081D0F00081D0F00080000000044
:100020000000000000000000000000001D0F00089C
:100030001D0F0008000000001D0F00084D240008DF
:100040001D0F00081D0F00081D0F00081D0F0008E0
:100050001D0F00081D0F00081D0F00081D0F0008D0
:100060001D0F00081D0F00081D0F0008151F0008B8
:10007000211F0008D51800082D1F0008391F00088F
:10008000C59600081D0F00081D0F00081D0F000871
:100090001D0F00081D0F00081D0F00081D0F000890
:1000A0001D0F00081D0F00081D0F00081D0F000880
:1000B0001D0F00081D0F00081D0F00081D0F000870
:1000C0001D0F00081D0F00081D0F00081D0F000860
:1000D0001D0F0008B99600081D0F00081D0F00082D
:1000E0001D0F00081D0F0008000000001D0F000874
:1000F0001D0F00081D0F00081D0F00081D0F000830
:100100001D0F00081D0F00081D0F00081D0F00081F
:100110001D0F00081D0F00081D0F00081D0F00080F
:100120001D0F00081D0F00081D0F00081D0F0008FF
:100130001D0F00081D0F00081D0F00081D0F0008EF
:1001400000000000000000000000000000000000AF
:100150001D0F00081D0F00081D0F00081D0F0008CF
:100160001D0F00081D0F00081D0F00081D0F0008BF
:100170001D0F00081D0F00081D0F00081D0F0008AF
:100180001D0F00081D0F00081D0F00081D0F00089F
:100190001D0F00081D0F00081D0F00081D0F00088F
:1001A0001D0F00081D0F00081D0F00081D0F00087F
:1001B000719000081D0F00081D0F00081D0F00089A
:1001C0001D0F00081D0F00081D0F00081D0F00085F
:1001D0001D0F00081D0F00081D0F00081D0F00084F
:1001E0001D0F00081D0F00081D0F00081D0F00083F
:1001F0001D0F00081D0F00081D0F00081D0F00082F
:100200001D0F00081D0F00081D0F00081D0F00081E
:100210001D0F00081D0F00081D0F00081D0F00080E
:100220001D0F00081D0F00081D0F00080000000032
:100230001D0F00081D0F0008000000001D0F000822
:100240001D0F00081D0F00081D0F00081D0F0008DE
:100250001D0F00081D0F00081D0F00081D0F0008CE
:100260001D0F00081D0F00081D0F00081D0F0008BE
:100270001D0F00081D0F00081D0F000800000000E2
:100280001D0F00081D0F00081D0F000800000000D2
:08029000000000001D0F000832
:1002A00010B5054C237833B9044B13B10448AFF3B0
:1002B00000800123237010BD900000240000000086
:1002C0009802000808B5034B1BB103490348AFF37C
:1002D000008008BD0000000094000024980200087F
:1002E00001F0FF01102A2BDB10F0070F08D010F8E7
:1002F000013B013A8B422DD010F0070F42B3F6D1EB
:10030000F0B441EA012141EA014122F007047FF003
:1003100000070023F0E80256083C85EA010586EA5A
:10032000010685FA47F5A3FA87F586FA47F6A5FA96
:1003300087F68EB9EED1F0BC01F0FF0102F00702A2
:1003400032B110F8013B013A83EA010313B1F8D14D
:100350000020704701387047002D06BF354603382E
:10036000073815F0010F07D1013015F4807F02BF67
:10037000013015F4C03F0130F0BC0138704700BFB8
:1003800053B94AB9002908BF00281CBF4FF0FF31FC
:100390004FF0FF3000F06EB9ADF1080C6DE904CEFE
:1003A00000F006F8DDF804E0DDE9022304B0704750
:1003B0002DE9F047089D04468C46002B40F08380D1
:1003C0008A42174647D9B2FA82F242B1C2F12000FE
:1003D00024FA00F09140974040EA010C94404FEA23
:1003E0001748230CBCFBF8F61FFA87FE08FB16C162
:1003F00043EA014306FB0EF1994209D9FB1806F1C5
:10040000FF3080F01981994240F21681023E3B4450
:100410005B1AA4B2B3FBF8F008FB103344EA0344C0
:1004200000FB0EFEA64509D93C1900F1FF3380F010
:100430000581A64540F2028102383C4440EA06406C
:10044000A4EB0E0400261DB1D4400023C5E90043EF
:100450003146BDE8F08702B9FFDEB2FA82F2002A27
:1004600050D1CB1B4FEA174E1FFA87F80126B3FB7A
:10047000FEFC210C0EFB1C3341EA034108FB0CF38C
:100480008B4207D979180CF1FF3002D28B4200F26F
:10049000E9808446C91AA3B2B1FBFEF00EFB10112D
:1004A00043EA014408FB00F8A04507D93C1900F1D4
:1004B000FF3302D2A04500F2D9801846A4EB08040D
:1004C00040EA0C40BFE78B4209D9002D00F0B18013
:1004D0000026C5E9000130463146BDE8F087B3FA91
:1004E00083F6002E4AD18B4202D3824200F2B880BA
:1004F000841A61EB030101208C46002DA8D0C5E9C8
:10050000004CA5E7C2F1200320FA03F6974001FA58
:1005100002F04FEA174ED9403043030CB1FBFEF610
:100520001FFA87F80EFB161143EA014306FB08F198
:10053000994204FA02F409D9FB1806F1FF3C80F055
:100540008D80994240F28A80023E3B445B1A81B220
:10055000B3FBFEF00EFB103341EA034100FB08F34E
:100560008B4207D9791800F1FF3C73D28B4271D9C5
:1005700002383944CB1A40EA064678E7C6F1200C27
:1005800003FA06F422FA0CF31C4320FA0CF701FAE2
:1005900006F34FEA144E21FA0CF11F433B0CB1FB5A
:1005A000FEF91FFA84F80EFB191143EA014109FB19
:1005B00008FA8A4502FA06F200FA06F308D9611829
:1005C00009F1FF3048D28A4546D9A9F102092144F0
:1005D000A1EB0A01BFB2B1FBFEF00EFB101147EA1E
:1005E000014700FB08F8B84507D9E71900F1FF31CA
:1005F0002ED2B8452CD90238274440EA0940A7EB4F
:100600000807A0FB02894F45C64649461AD317D0B2
:100610005DB1B3EB0E0267EB010707FA0CFCF24089
:100620004CEA0202F740C5E9002700263146BDE842
:10063000F0872E4628460BE70646E9E61846FDE613
:100640004345E5D2B8EB020E69EB04010138DFE760
:100650000846D2E760468DE78146B9E7664675E70A
:1006600030464AE7ACF1020C394413E702383C4407
:1006700024E700BF704700BF30B4194C0022194B6B
:10068000D4F88810184841F47001184DC4F8881047
:100690001C68174944F001041C601A611C68204062
:1006A00018609A61DA611A629A62DA621A635A63AE
:1006B0009A63DA631A645A64186820F48020186018
:1006C0001A662B681940B1F1005F02D2094B012272
:1006D0001A60034B4FF0006230BC9A60704700BF55
:1006E00000ED00E0004402587FEDF6EA0010005CE7
:1006F0000000FFFF08810051704700BF704700BF36
:10070000704700BF144B1B784BB1144B1B68A3B14F
:10071000022B11D1124A13681844106070470F4918
:10072000104A0B68184482FB0032C317C3EB620304
:1007300003EB8303C01A0860704707EE900A0A4B68
:100740000A48B8EEE70AD3ED007A30EE270A83EDC7
:10075000000A0BF029BF00BFBC000024E000002409
:100760000C00002467666666D0000024C0000024E8
:100770000C4B93F871307F2B00D070470A4B1B68ED
:1007800033F0020205D1094A137883F00103137094
:100790007047012BF1D1064A137883F001031370DF
:1007A000EBE700BFE4000024E0000024BC000024CC
:1007B000D400002410B5184CD4F88800FFF7A2FF2D
:1007C00094F871307F2B22D0FF2B11D0802B0ED1CB
:1007D000124A13785BB1124900200B78107083F035
:1007E00001030B701BB10F4A0F4B12681A6010BD4A
:1007F0009FED0E7AD4ED1E7A67EE877AF4EEC77A13
:10080000F1EE10FAF3DD054B01221A7010BDFFF76F
:10081000AFFF94F87130D7E7E400002420050024EE
:10082000D500002410000024DC00002400007A44DD
:1008300010B5134800F08AFB114800F09BFB114CE7
:10084000FFF7B8FF104803F00FF8BDEEC00A0F48DD
:1008500084ED000A03F008F8BDEEC00A0C4884EDF0
:10086000010A03F001F8BDEEC00A0A4884ED020A4D
:1008700002F0FAFFBDEEC00A84ED030A10BD00BF0E
:10088000E4000024F4050024240500245805002475
:100890008C050024C005002410B50A4C00202168F6
:1008A000C1F30F1102F06AFB216801206FEA2111E8
:1008B00089B202F063FB044B04481978BDE810408C
:1008C00002F014BB10000024D80000240905002405
:1008D00070B5214C2268002A30DD20492048D1E93A
:1008E0000035007842FA05F642FA03F3D1E90251E5
:1008F00073401C4E42FA05F542FA01F153406B4039
:10090000194D4B4003F0010307EE903AD9033360D1
:10091000F8EEE77A41EA62022260C5ED007A60B142
:10092000124A13491368096801338B42136004DDCE
:10093000104B00211B681160236070BD0CF004FA9D
:100940000D4A4AF6E14382FB0012C117C1EB223285
:1009500003FB1202C1E700BF10000024F4050024CD
:10096000D5000024D8000024AC000024140000248A
:100970000C000024DC000024E560B1172DE9F843E9
:1009800016460C46FFF754FF4EB3271F0025DFF82D
:100990006C900C34DFF8688099F800300BB3D8F80D
:1009A00000E04FEA850C134A384652F8043BB6EE95
:1009B000006B50F8041F4EFA03F36144844203F0C5
:1009C000010307EE103AB8EEC77B27EE067BB7EEC1
:1009D000C77B81ED007AE8D10235AE42DCD8BDE8B4
:1009E000F88305480BF0C0FD0028D8D0FFF770FF52
:1009F000D5E700BFF4050024C0000024D400002483
:100A00001000002408B4F0B50D461146044682B02B
:100A1000C81D00AF20F0070007F11C03ADEB000D6F
:100A200053F8042B6E463B603046A84704F1080398
:100A30000F2805462360786010D801280BD1327842
:100A4000227200222046083765605A55BD46BDE82F
:100A5000F04001B070470028F3D008E00022391DB3
:100A600020460BF0C5FD7A6803462060A2602A4646
:100A7000184631460CF08EF87D682368E1E700BF28
:100A80002DE9F04300268FB081484FF0010931462F
:100A900004AF02F0B9FB324631467D4803968DF82B
:100AA0001060029702F098FE07237A4D3146039AB0
:100AB000009302A8784B0BF055FE39467448CDF8E8
:100AC0000090764C95E80C0002F066FE32465A2102
:100AD0006F4802F081FE724A3146724B167802A8C6
:100AE000714A04F11008CDF800908E4208BF1346F9
:100AF000039A0BF037FE39466548CDF8009095E82B
:100B00000C0002F049FE0126684B039A002102A85E
:100B100000960BF027FE54F8041B0F225C48C1EB33
:100B2000C101C9B202F058FE39465948009695E80D
:100B30000C0002F031FEA045E5D10024DFF8A881C9
:100B400015E00092039A0BF00DFEC4EBC4010126E0
:100B500019224F48C9B2344402F03EFE39464C488F
:100B6000009695E80C0002F017FE102C10D0D8F873
:100B7000001001224E4B02A821411140E1D0104645
:100B80004C4B039A0021009002A80BF0EBFDDCE730
:100B9000494C2168002962D0012940D002296ED039
:100BA000464B01242D223A4813F8211002F014FE7E
:100BB00039463748009495E80C0002F0EDFD404BB3
:100BC0001B78002B37D12D225C21314802F004FE26
:100BD0003C4A3D4B08A8146810223C49013400945B
:100BE000FFF710FF08A902A80BF059FD01233946B1
:100BF0002748009395E80C0002F0CEFD244802F04F
:100C00000DFB08980AAB984201D00BF0EAFC029861
:100C1000B84201D00BF0E5FC0FB0BDE8F0832C4BDF
:100C20001B7800911BB300212A4B02A8039A0BF0FA
:100C300099FD2168B4E72D224621154802F0CCFD2C
:100C4000039A254B002102A800940BF08BFD394636
:100C500000940F4895E80C0002F09EFDB3E71F4B8F
:100C600002A8039A00960BF07DFD216898E71946CB
:100C700002A81B4B039A0BF075FD216890E7002139
:100C8000184B02A8039A00960BF06CFD216887E7C9
:100C9000080500241800002494D50008F405002459
:100CA000BC0000248CD5000890D500089CD5000815
:100CB000A4D50008A0D50008E0000024B00000245E
:100CC000D50000240C000024BCD50008B1CE0008DB
:100CD000D4000024ACD50008B8D50008A8D5000879
:100CE000B0D50008B4D50008100000244C482DE908
:100CF000F04F00F18C05DFF860810026494F4FF07E
:100D0000050B4FF0170A4FF001092DED028B89B04A
:100D100000F096F9A5F18C0000F012F9424B01ACFD
:100D2000DFF838C1C8F800304FF0070E8CF80060CB
:100D30004FF00B0C3E700F27F2EE0E0AB0EE408A19
:100D4000B7EE000A0FCD0FC495E8070084E807004E
:100D50003648302336493246067036480E6001A9BF
:100D6000067035488360354BC3E902C705F10C07AF
:100D7000C0E900BA3248C3E9009E02F03FFD0DF120
:100D8000040CF2EE0E0AB7EE000A0FCFACE80F002B
:100D900097E8070005F1280784E80700324601A913
:100DA000284802F02BFD0DF1040CF2EE0E0AB7EE0E
:100DB000000A0FCFACE80F0097E8070005F14407E1
:100DC00084E80700324601A91F4802F017FD0DF123
:100DD000040CF2EE0E0AB7EE000A0FCFACE80F00DB
:100DE00097E8070084E8070001A93246174802F097
:100DF00005FDF0EE480A98ED000A15480BF098FB47
:100E0000A5F19C0000F098F8A5F19C00114900F0B4
:100E100087F8FFF70DFDFFF73FFDFFF731FEF8E71D
:100E2000E4000024D400002400002041D500002468
:100E3000E000002420050024B0000024F405002474
:100E400024050024580500248C050024C005002436
:100E5000C00000247D090008D0000024BC0000244C
:100E600010B5104A104C114911480BF0B5FB0D4A52
:100E7000104911480BF0B0FB21460A4A0F480BF00D
:100E8000ABFB2146074A0E480BF0A6FB2146054A5C
:100E90000C480BF0A1FB2146024A0B48BDE810406C
:100EA0000BF09ABB00000024FD06000801070008B3
:100EB000E4000024F9060008C000002424050024F2
:100EC000580500248C050024C0050024DFF834D028
:100ED000002103E00C4B5B58435004310B480C4B92
:100EE00042189A42F6D30B4A02E0002342F8043B30
:100EF000094B9A42F9D3FFF7BFFB0BF017FEFFF740
:100F0000F5FE704700000220D4DF00080000002436
:100F10008C0000249000002454250024FEE70000EB
:100F2000084608B501F02AF9002001F047F9012030
:100F3000BDE8084001F042B9543000F05FBC00BF8A
:100F40009FED010A704700BF008E3B4710B5044675
:100F50008C3002F0C5F804F1A80002F0C1F804F1E9
:100F6000C40002F0BDF804F1E000BDE8104002F05A
:100F7000B7B800BF6C3002F0FDB800BFF0B50F216C
:100F80000646002406F1540706F18C052DED028B70
:100F900097B0DFED298A07F037FC034605A89FEDDF
:100FA000278AADF80430019900F026F91021304667
:100FB00007F02AFC03460DF12500ADF80830029930
:100FC00000F01AF91521304607F01EFC03460DF11A
:100FD0003600ADF80C30039900F00EF912213046BE
:100FE00007F012FC03460DF14700ADF810300499EC
:100FF00000F002F9042305A938461A4600F00AF960
:10100000E1B2384600F016FCD6F82C340134014623
:1010100007EE903A2846F0EE480A0023B8EE670A39
:1010200001221C3588EE800A02F040F8042CE7D13A
:1010300017B0BDEC028BF0BD008E3B476F12033B37
:101040002DE9F04385B00446012507F053FB002647
:1010500030224FF003090223C4F82C241D2184F808
:101060002430204684F8309004F5866784F82650B2
:1010700004F2244884F8285084F82A5084F82C601C
:1010800084F82E6007F0C0FB0346A4F832543846BB
:10109000A4F8303401F0F0FED4F82C14304601F0FE
:1010A00077F8D4F82C14284601F072F8204607F09F
:1010B00091FB2046092107F0A7FB03461E2120468D
:1010C000ADF80C3007F0A0FB034603A94046ADF88D
:1010D0000E3002F0E9F8494604F15C0001F018FF17
:1010E0003146304601F04AFF3146284601F046FFBE
:1010F00020460C2107F088FB03460B212046ADF863
:10110000083007F081FB034631462046ADF8043035
:1011100007F07AFBD4F82C2403469FED360A04F13D
:101120006C0007EE902A0299ADF80030F8EE677A6D
:10113000DDE9003280EE270A01F0F6FF112120469A
:1011400007F062FB034684F8275404F225401BB2E3
:1011500084F82864C3F3072284F8253484F826240D
:1011600001F08AFE2046142107F04EFB034603A936
:1011700004F1FC00ADF80C3002F02CF820461321ED
:1011800007F042FB034603A904F58170ADF80C306B
:1011900002F020F82046092107F036FB03461E2105
:1011A0002046ADF80C3007F02FFB034603A940465C
:1011B000ADF80E3002F078F82A46294604F584701E
:1011C00002F010F82046FFF7D9FE3146384601F00C
:1011D0008DFE0A2001F0B4F92946384601F086FE5A
:1011E0001123C4F8383401F0A9F9C4F8340405B067
:1011F000BDE8F083008E3B4782B000230322ADF8A8
:101200000410BDF80410827001800374C37002B032
:10121000704700BF2DE9F04F0026DC4CDC4F9646AE
:1012200042608FB0037007F1380284F8FCE0844616
:10123000A4F80961C4F8FD60C4F80161C4F805614F
:10124000BE6103960696C7E90066C7E90266C7E96C
:1012500004664368CDE90466C4E94A72CDE90766CD
:10126000CDE90966CDE90B66002B00F06B810D46D8
:101270000868A0464968EB68AA683E80A8E80F00A5
:101280002B7C88F800302B7C84F8FD30DCF80430AF
:10129000012B40F257812B467E8053F8118F5868FE
:1012A0009968DA68C4F81180C4F81500C4F81910F8
:1012B000C4F81D201B7C84F8213095F8213084F877
:1012C000FE30DCF80430022B40F23C812B46BE801D
:1012D00053F8228F58689968DA68C4F82280C4F8F5
:1012E0002600C4F82A10C4F82E201B7C84F8323063
:1012F00095F8323084F8FF30DCF80430032B40F2EC
:1013000021812B46FE8053F8338F58689968DA683C
:10131000C4F83380C4F83700C4F83B10C4F83F2049
:101320001B7C84F8433095F8433084F80031DCF8B6
:101330000430042B40F20681A94604F144083E81A2
:1013400059F8440FD9F80C30D9F80410D9F808200E
:10135000A8E80F0099F8103088F8003095F854305C
:1013600084F80131DCF80430052B40F2EB802B4689
:101370007E8153F8558F58689968DA68C4F85580AB
:10138000C4F85900C4F85D10C4F861201B7C84F8CF
:10139000653095F8653084F80231DCF80430062BAE
:1013A00040F2D0802B46BE8153F8668F586899680A
:1013B000DA68C4F86680C4F86A00C4F86E10C4F82D
:1013C00072201B7C84F8763095F8763084F80331EF
:1013D000DCF80430072B40F2B5802B46FE8153F831
:1013E000778F58689968DA68C4F87780C4F87B000A
:1013F000C4F87F10C4F883201B7C84F8873095F8EC
:10140000873084F80431DCF80430082B40F29A80ED
:10141000A94604F188083E8259F8880FD9F80C30A3
:10142000D9F80410D9F80820A8E80F0099F810306E
:1014300088F8003095F8983084F80531DCF80430ED
:10144000092B7FD92B4608F101064FF0000A53F80B
:10145000998FA7F812A058689968DA68C4F899803B
:101460007060B160F2601B7C337495F8A93084F829
:101470000631DCF804300A2B64D92B46A7F814A0F7
:1014800053F8AA8F58689968DA68C4F8AA80C6F831
:101490001500C6F81910C6F81D201B7C86F82130EF
:1014A00095F8BA3084F80731DCF804300B2B49D9B1
:1014B0002B46A7F816A053F8BB8F58689968DA68CE
:1014C000C4F8BB80C6F82600C6F82A10C6F82E203D
:1014D0001B7C86F8323095F8CB3084F80831DCF884
:1014E00004300C2B2ED9A94606F13308A7F818A012
:1014F00059F8CC0FD9F80C30D9F80410D9F80820D5
:10150000A8E80F0099F8103088F8003095F8DC3022
:1015100084F80931DCF804300D2B13D92B46A7F8D9
:101520001AA053F8DD7F58689968DA68C4F8DD704E
:10153000B064F16432651B7C86F8543095F8ED3068
:1015400084F80A315FFA8EF1124D4FF480209CF836
:10155000002000230826C4F848110121C4F83051A6
:101560004FF48075C4F834010320C4F8383184F88E
:101570004C31A4F84451C4F85C01C4E95533C4E9C2
:101580005833C4E94F16AAB106E000BF0406002490
:101590000000003000200240013A84F86811C4E9DC
:1015A0005D31082A08D8DFE802F083888D92979C85
:1015B000A1A7AE0084F86821804802F037FE0346F8
:1015C00008B1FFBEFEE703A97C48039302F08AFF3F
:1015D0000546002840F0EB8040F2FF730222042011
:1015E000002184F80C52CDE9082394F8FC30CDE9B1
:1015F0000A01002B00F0D8800627DFF8F8B1DFF8E9
:10160000F8A121E0022B00F0A980012B40F0B2806C
:1016100099F80130012B00F0C180002B0CBF53461C
:10162000002306A965480693079702F023FA0028CD
:1016300040F0B280013594F8FC30EDB2AB4240F29C
:10164000B3805F4B53F825702EB206EB061604EB01
:101650000609484601F010FC05EB051323441B7CEA
:10166000042B00F39F80022B00F39A8052D0621962
:10167000002182F8EE10002B50D1A35D002BC1D1C8
:1016800099F80130062B00F08380072B7ED0022BC7
:101690007AD0032B76D0002B7CD0012B00F08980F0
:1016A000042B00F08880052B464B18BF0023B8E7B9
:1016B00003234022C4E95B327EE707236022C4E9AA
:1016C0005B3279E70F238022C4E95B3274E71F2382
:1016D000A022C4E95B326FE73F23C022C4E95B323A
:1016E0006AE77F23E022C4E95B3265E7FF234FF41A
:1016F0008072C4E95B325FE740F2FF134FF49072EF
:10170000C4E95B3258E740F2FF334FF4A072C4E9FA
:101710005B3251E70123621982F8EE30631901212F
:1017200093F8EE2084F80C12002AA6D006F10408E3
:101730001A460023009701962F46A0441D461646E0
:101740004046013501F098FB96F8EE3008F10408A8
:10175000AB42F5DC3D46DDE900768EE799F80130D5
:10176000042B0DD0052B09D033B1012B164B18BF1C
:10177000002356E7002354E7144B52E7144B50E77D
:10178000144B4EE7144B4CE7144B4AE7144B48E715
:10179000144B46E7144B44E7FFBEFEE75B4640E7C9
:1017A0000223B8E70323B6E70FB0BDE8F08FFFBE12
:1017B000FEE70E4B35E70E4B33E700BF340700243E
:1017C000C0D500080000B84F0008302E0004002AE1
:1017D000000180211000C0100080F03E0040C03A9F
:1017E0008000501D0800900C00002143000052476B
:1017F0000000844B2000F0140002B02510B50B4C03
:1018000040F2FF724FF0011104F5987002F018FEDB
:1018100094F80C3294F8FC2003B15200D4F828114B
:101820000348BDE8104002F079BB00BF0406002465
:1018300034070024034B0D29D3F8280198BF00EB8F
:1018400041007047040600241E4B02689A4200D0F3
:1018500070471D4B4FF48061D3F8D82070B542F02B
:1018600020021A4C05460920C4F8A4114FF4006167
:10187000C4F8980182B0C3F8D82004F5CA76D3F82A
:10188000D8204FF40053124802F02002C4F8A811E7
:10189000C4F8AC314FF480710023C4F89401019274
:1018A0003046019AC4F8B011C4E96733C4E96D3316
:1018B00005F082FF08B1FFBEFEE7EE64C4F8CC512C
:1018C00002B070BD0020024000440258040600240B
:1018D00040000240014806F0FFBA00BF980700240C
:1018E00002682DE9F84F2A4B9A4201D0BDE8F88FE3
:1018F000DFF8A09099F8FC20002AF7D0002409F125
:10190000040609F5867509F1FC07A04616E05FFAA2
:1019100083FA03F0010117F80FBC304601F0E6FA34
:10192000301DBBF1010FCAF3400125D899F8FC2006
:10193000013411360235A3B29A42D7D917F8011FE4
:10194000C4EBC40C0029F3D0D9F828210021D9F820
:101950002C3128788A4632F814E003EB4C1302014C
:1019600023F802E02B8801339BB22B803A789A420D
:10197000CDD8A5F80080CEE701F0B8FABBF1020F90
:1019800006F10800CAF38001D0D001F0AFFACDE72C
:1019900000200240040600242DE9F04FD64F8DB000
:1019A000DFF86CB3BB6807F11006D7F810580BF5D9
:1019B00082640BF1100207F5826903EB800E069436
:1019C00083000A9204EB8508DBF8084006EB850CDF
:1019D000039302EB850197F81C3809EB850ACDF8D3
:1019E0001C8004EB80000B91CDE9086CCDE9049AD2
:1019F000002B00F0DA80012B40F0C480002D00F0B5
:101A000066810B4600240EF1040900F10408DFEDA5
:101A1000BB5A71460295019351F8343059F834504D
:101A200083F4000E50F8343085F4000583F4000A86
:101A3000AEF5000306EE103A58F83430AAF5000A65
:101A4000013483F4000EA5F5000306EE90AAB8EE6B
:101A5000C66A07EE103AAEF50003F8EEE66A07EE46
:101A6000903AB8EEC77A019B26EE256AF8EEE77A3F
:101A700066EEA56A27EE257AA6EC016A67EEA57ADE
:101A8000E2EC016AACEC017AE3EC017A0193029B8F
:101A9000A342C1D11D467B682A4604A908A89847DD
:101AA000039ADBF80C00F96897F81C3810441144CD
:101AB000002B00F0B180012B5DD1DDF810A00023D8
:101AC000DDF81C900E1DDDF81880041DDDF814E013
:101AD0009FED8B7ADFF83CC2DFED8A6A8A4F3BE0EC
:101AE000F4EEE67AF1EE10FAC0F22B813A46FEEC03
:101AF000017A41F83320F4EEC77AF1EE10FA3FD9BB
:101B0000F4EEE67AF1EE10FAC0F222813A46F8ECF1
:101B1000017A46F83320F4EEC77AF1EE10FA2DD9A7
:101B2000F4EEE67AF1EE10FAC0F219813A46F9ECD9
:101B3000017A40F83320F4EEC77AF1EE10FA14D9A6
:101B4000F4EEE67AF1EE10FAC0F2C7803A4644F8B5
:101B5000332001339D420ED9FAEC017AF4EEC77AB4
:101B6000F1EE10FABCD86246C1E7624644F8332071
:101B700001339D42F0D80DB0BDE8F08F6246D6E744
:101B80006246C4E77B682A4604A908A89847039AD6
:101B9000DBF80C00F96897F81C3810441144CBB3FB
:101BA000012BE8D1002D88D1E5E7002D00F08F80D2
:101BB0000EF1040900F10408DFED545A3EF93340F8
:101BC00006EE104A30F9334006EE904A39F93340B8
:101BD000B8EEC66A07EE104A38F93340F8EEE66A06
:101BE000013307EE904AB8EEC77A26EE256A9D4289
:101BF000F8EEE77A66EEA56A27EE257AA6EC016A8A
:101C000067EEA57AE2EC016AACEC017AE1EC017ACC
:101C1000D4D140E7002DAED0DDF810A00023DDF8D0
:101C20001C900E1DDDF81880041DDDF814E09FEDFA
:101C3000347ADFF8E0C0DFED336A334F38E0F4EE9A
:101C4000E67AF1EE10FA4FDB3A46FEEC017A41F803
:101C50003320F4EEC77AF1EE10FA36D9F4EEE67AD4
:101C6000F1EE10FA58DB3A46F8EC017A46F83320E8
:101C7000F4EEC77AF1EE10FA25D9F4EEE67AF1EE39
:101C800010FA50DB3A46F9EC017A40F83320F4EED2
:101C9000C77AF1EE10FA14D9F4EEE67AF1EE10FA02
:101CA00048DB3A4644F8332001339D427FF663AF68
:101CB000FAEC017AF4EEC77AF1EE10FABFD8624678
:101CC000C3E76246EEE76246DDE76246CCE77B6843
:101CD0002A4604A908A898474DE7B0EE676ABEEE09
:101CE000E46A16EE102A32E7B0EE676ABEEEE46AE6
:101CF00016EE102AA9E700BF1408002400000034E3
:101D000004FF7FBF04FF7F3F82FF7F000000003899
:101D10003C1000247E0080FFB0EE676ABEEEE46AED
:101D200016EE102AA0E7B0EE676ABEEEE46A16EE81
:101D3000102AA8E7B0EE676ABEEEE46A16EE102A33
:101D4000B0E7B0EE676ABEEEE46A16EE102ACEE6A1
:101D5000B0EE676ABEEEE46A16EE102AD7E6B0EE81
:101D6000676ABEEEE46A16EE102AE0E60B469200C1
:101D7000014618460AF00EBFF8B5044601220F4688
:101D800058484FF4804105F02BFC2368564A934293
:101D900063D02032934260D0544DD5F8184805F1F5
:101DA000100095F81C28BE00AB686408012A03EBFC
:101DB000870100EB840452D0A0420FD002469FED71
:101DC0004C7A51F8043B1BB207EE903AF8EEE77AF2
:101DD00067EE877AE2EC017A9442F2D105F58264EB
:101DE00095F81E78D5F8102821462B6802FB07F2DB
:101DF0009847D5F8182895F81C18EB68520801295F
:101E0000334404EB820240D094421ED09FED397AD5
:101E10003948DFED3A6A9FED3A6A08E0F4EEE67A77
:101E2000F1EE10FA55DBA24243F8041B0DD0F4EC9E
:101E3000017A47F6FE71F4EEC77AF1EE10FAEDD8AA
:101E40000146A24243F8041BF1D100224FF4804125
:101E50002448BDE8F84005F0C3BB2A4D9DE7A042E9
:101E6000BCD002469FED287A51F8043B83F400036E
:101E7000A3F5000307EE903AF8EEE77A67EE877A6B
:101E8000E2EC017A9442EFD1A8E79442DDD0043B22
:101E90009FED187A1D4DDFED196A1D4808E0F4EE3C
:101EA000E67AF1EE10FA0DDBA24243F8041FCCD023
:101EB000F4EC017A0146F4EEC77AF1EE10FAEED8AE
:101EC0002946F1E7B0EE676ABEEEE46A16EE101A34
:101ED000EAE767EE867AFDEEE77A17EE901A09B226
:101EE000A1E700BF00180258045801403C1000242C
:101EF0000000003804FF7FBF0280FFFF04FF7F3F28
:101F000000FEFF4614080024000000347E0080FF1D
:101F100082FF7F00014805F0DFBF00BF00220024E0
:101F2000014805F0D9BF00BF78220024014805F020
:101F3000D3BF00BFF0220024014805F0CDBF00BF91
:101F4000582000242DE9F0470646814C814D88B089
:101F5000814AD0E90030C4F82468802BC5F8246891
:101F6000077828BF802390F80B9090F80C80C4F875
:101F70001038C5F81038C378226084F81C3803790B
:101F80002A6085F81C3800F025FDB06808B100F023
:101F9000D9FAF06808B100F0D5FAD5F810184FF06A
:101FA000020E6E4A17F0FD0F0191D4F8101802F5D9
:101FB00000606B4B01FA0EFA0199AB6003F5006308
:101FC00001FA0EF1E260A060C4F818A8EB60C5F851
:101FD000181884F81EE885F81EE82ED1F14584F81B
:101FE0001D9800F08A80B9F1030F76D0B9F1010F86
:101FF0007DD0914600F2FF7340F6FE72A3EB090319
:10200000934240F28C804FF4006200210AF0EAFD16
:1020100048464FF4006200210AF0E4FD4FF40072DC
:10202000002150480AF0DEFD4FF4007200214E48B6
:102030000AF0D8FD0023C4F814387B1E012B10D9F8
:1020400000274A484FF4804201230024077002A968
:1020500047480594CDE9022305F0CAF808B0BDE869
:10206000F087B8F1010F85F81D8854D0B8F1020F40
:102070000AD171681023F0684BF68032897AB1FA80
:1020800081F1490906F016FCA86840F6FE72ED6879
:1020900000F2FF735B1B93424ED94FF400620021A4
:1020A0000AF0A0FD28464FF4006200210AF09AFDD4
:1020B0004FF4007200212F48A7F102070AF092FDA9
:1020C0004FF4007200212C480AF08CFDB7FA87F714
:1020D00000237F09C4F81438B3E740F60133ADF8A4
:1020E0000830029806F0ECFCD4E9020982E7B068F7
:1020F00006F0A0FBD4E902097CE7716810234BF6D7
:102100008032B068497AB1FA81F1490906F0D2FB10
:10211000D4E902096EE7F06806F08CFBB4E7031F10
:10212000A9F1040200F2FC70002143F8041F83426D
:1021300042F8041FF9D171E7031F2A1F00F2FC7057
:10214000002143F8041F984242F8041FF9D1AFE779
:10215000140800243C1000246D1D000818010030F4
:102160001811003024080024240C002464180024D2
:10217000001802584C1000244C140024024901227B
:10218000024B48601A707047140800246418002439
:1021900068B9084B802993F81E2828BF8021C3F80E
:1021A000101801FB02F14900C3F818187047024BE0
:1021B000F0E700BF140800243C10002410B5C0B99B
:1021C000234CD4F82438B4F818285B685B7973B3CF
:1021D000E168204803F064F8D4F82438B4F81828EB
:1021E0005B68DB7973BBA1681B48BDE8104003F056
:1021F000E9B81A4CD4F82438B4F818285B689B79ED
:1022000083B1E168164803F04BF8D4F82438B4F8E9
:1022100018285B681B7A7BB9A1681248BDE810409A
:1022200003F0D0B8A1680E4803F0CCF8EDE7A16840
:10223000084803F0C7F8CFE7E1680A48BDE8104056
:1022400003F02EB8E1680448BDE8104003F028B858
:102250001408002468230024682100243C10002472
:10226000D0200024C01F0024084B1A78012A07D16F
:102270000368074A934206D02032934203D0704746
:102280000021FFF779BD0020FFF786BB641800240A
:10229000045801400B4B1A78012A07D103680A4AF7
:1022A000934209D02032934206D07047074BD3F8AF
:1022B00018184908FFF760BD044BD3F81808400808
:1022C000FFF76ABB64180024045801401408002476
:1022D0002DE9F04FCFB04C2200210AA80AF082FC71
:1022E0002022002102A80AF07DFCBC2200211EA8A9
:1022F0000AF078FC022006F04FF9514A0021514BB8
:1023000001911846D16A21F00101D162D26A02F02E
:10231000010201929A6942F440429A619B6903F476
:1023200040430193019B83699B04FCD5464A0224E8
:1023300021204FF48031936A0126042523F0030302
:1023400023439362C8230822109616930023179400
:10235000199415951C93CDE90A0105210AA8CDE928
:1023600013441891CDE91A2303F03AF900B1FEE7BE
:102370003F2603270022082302A82146CDE9026751
:10238000CDE90423402640234FF480624027CDE965
:102390000823CDE9066703F05FFC034600B1FEE7C2
:1023A00080220A260227002534924FF4807233944B
:1023B0008024439200224FF054084FF008091EA8D1
:1023C000CDE93B334FF4805335934FF4803346933C
:1023D0000623CDE92267CDE9244540F227164027A0
:1023E00004242025CDE926234FF480620023CDE983
:1023F0002867CDE92A45CDE92C230FF23C0BDBE918
:1024000000AB002602270024002500224FF44013D1
:10241000CDE91EABCDE92089CDE92E67CDE9304568
:10242000CDE93E2303F078FE00B1FEE706F0DAF8CE
:102430004FB0BDE8F08F00BF09130F030400000088
:1024400000040058004802580044025808B506F03D
:1024500027F9BDE8084002F07BB900BFFFBE704716
:1024600070B584B0012506F0EDF80024FFF730FFC9
:1024700002F022F94FF040512E4A4FF48073684623
:102480000191ADF80050CDE9022302F037F940F296
:10249000011119224FF040436846ADF80E108DF837
:1024A000082001938DF801508DF80D408DF80A40F9
:1024B00002F024F9042002F00FF906F01BFBBFF331
:1024C0004F8FBFF36F8F1C4BC3F85042BFF34F8F3A
:1024D000BFF36F8F5A6942F400325A61BFF34F8FD6
:1024E000BFF36F8FC3F88440BFF34F8FD3F88010D2
:1024F00043F6E074C1F34E32C1F3C901520102EA5E
:102500000405084645EA80760138C3F86062461C37
:10251000F8D1203A12F1200FF1D1BFF34F8F5A6951
:1025200042F480325A61BFF34F8FBFF36F8F04B014
:1025300070BD00BF0D00010300ED00E006F0BCB867
:1025400006F0C0B838B5054601F032FA04462B78DB
:10255000022B3FD0032B35D0012B2BD02868214BE9
:10256000214A1860A988998022606B79012B18D0C4
:10257000022B1CD0C3B1002501232046E360A560D7
:102580002562C4E90455C4E9065502F091FA2946CA
:10259000204602F0BBFB29462046BDE8384002F049
:1025A000E1BB124B6360E6E7114B6360E3E7114B5D
:1025B0006360E0E72868104B104A1860A98899808A
:1025C0002260D2E728680E4B0E4A1860A9889980CD
:1025D0002260CAE728680C4B0C4A1860A9889980C9
:1025E0002260C2E768180024005400403211D02055
:1025F0008A62E0301A0980107018002400580040E8
:1026000080180024001C005878180024005C00404A
:102610009C4A0368934230B58FB055D09A4A934292
:1026200000F09C80994A934200F0EE80984A9342D1
:1026300001D00FB030BD974B974CD3F8E020601C11
:1026400042F00202C3F8E020D3F8E03003F00203C6
:102650000893089B01F09CF90546601C01F0A0F965
:10266000227812210023012ACDE90901CDE90B339B
:1026700001D804230D9309A92846019104F0B8FD5F
:10268000864801F085F90546844801F089F92278E9
:1026900000231224012A0199CDE90904CDE90B3365
:1026A00001D804230D93284604F0A2FD794BD3F8FA
:1026B000F42042F08002C3F8F420D3F8F43003F0A1
:1026C00080030993099BB4E7724B754CD3F8E02063
:1026D000601C42F00202C3F8E020D3F8E03003F0BF
:1026E00002030293029B01F053F90546601C01F0BE
:1026F00057F9227812210023012ACDE90901CDE9F9
:102700000B3301D804230D9309A92846019104F045
:102710006FFD644801F03CF90546624801F040F95C
:10272000227800231224012A0199CDE90904CDE978
:102730000B3301D804230D93284604F059FD554B63
:10274000D3F8E82042F40012C3F8E820D3F8E830C8
:1027500003F400130393039B0FB030BD4D4B524C59
:10276000D3F8E020601C42F08002C3F8E020D3F8E8
:10277000E02002F080020492049AD3F8E02042F0B4
:102780000202C3F8E020D3F8E03003F0020305931F
:10279000059B01F0FDF80546601C01F001F9227867
:1027A00012210023012ACDE90901CDE90B3301D81B
:1027B00004230D9309A92846019104F019FD3B4813
:1027C00001F0E6F80546394801F0EAF822780023DE
:1027D0001224012A0199CDE90904CDE90B3301D86E
:1027E00004230D93284604F003FD2A4BD3F8E82078
:1027F00042F48002C3F8E820D3F8E83003F4800301
:102800000693069B0FB030BD294C601C01F0C0F848
:102810000546601C01F0C4F8227812210023012A29
:10282000CDE90901CDE90B3301D804230D9309A9A2
:102830002846019104F0DCFC1E4801F0A9F8054689
:102840001C4801F0ADF8227800231224012A0199D6
:10285000CDE90904CDE90B3301D804230D932846B3
:1028600004F0C6FC0B4BD3F8E82042F40002C3F896
:10287000E820D3F8E83003F400030793079B0FB078
:1028800030BD00BF0054004000580040005C0040D4
:10289000001C0058004402588018002483180024AB
:1028A000681800246B180024701800247318002482
:1028B000781800247B180024184BF0B5197983B0E0
:1028C000012929D0002211460024154802230125A0
:1028D000144F4BF680360192009107600662C46186
:1028E000114EC460C0E90135C0E90544C0E90B449C
:1028F00002F014FC0D4802234461C461C4604463C7
:102900000660DDE90012C0E90154C0E90B4403B0E0
:10291000BDE8F04002F002BC0222D5E79018002486
:10292000D0200024045C0140245C0140C01F00242E
:1029300070B5254D82B0E978012936D000226B7A36
:102940001146002B35D0012B3AD16B791F48002B53
:102950000CBF03230223436000244BF6803602237E
:1029600006628460C461C460C0E90544C0E90B44E8
:102970001648CDE9001202F0D1FBEB79144801258D
:10298000A3424FF0020344610CBF03260226C46138
:102990004660C46044638560DDE90012C0E90B4411
:1029A00002B0BDE8704002F0B9BB6B7A0222002B86
:1029B000C9D16B790548B3FA83F35B094360CBE770
:1029C000024801234360C7E79018002468230024CD
:1029D00068210024F8B5194F044600F1200C3E464A
:1029E0002068103454F80C1C354654F8082C103666
:1029F00054F8043C64450FC5F2D12378104A337073
:102A0000104C11493B78114D1460012B104804F50E
:102A10008064104A0D6010490460116005D0022BDB
:102A200001D033B1F8BDFFF783FFBDE8F840FFF7F1
:102A300043BFBDE8F840FFF77BBF00BF90180024FC
:102A400068230024045801406821002424580140D0
:102A5000D0200024C01F0024245C0140B14BD3F8D7
:102A6000E02042F010022DE9F04FC3F8E02093B0CF
:102A7000D3F8E0200446AC4D02F010020092009A18
:102A8000D3F8E02042F00202C3F8E020D3F8E020BF
:102A900002F002020192019AD3F8E02042F04002D3
:102AA000C3F8E020D3F8E02002F040020292029A3C
:102AB000D3F8E02042F00802C3F8E020D3F8E02089
:102AC00002F008020392039AD3F8E02042F00402D5
:102AD000C3F8E020D3F8E02002F004020492049A44
:102AE000D3F8E02042F00102C3F8E020D3F8E02060
:102AF00002F001020592059AD3F8E02042F48072B8
:102B0000C3F8E020D3F8E010026801F48071AA4213
:102B100006910699D3F8E01041F08001C3F8E01067
:102B2000D3F8E01001F0800107910799D3F8E01085
:102B300041F02001C3F8E010D3F8E01001F02001CB
:102B4000089108990CD0794B9A4200F00781784B94
:102B50009A423AD0774B9A4275D013B0BDE8F08FC5
:102B6000754A1168002900F06E810025DFF8E891B0
:102B700001310DF1340809EB450A2F465FFA85FB58
:102B80001160504615B96D4B597AA9B900F000FF94
:102B90000646504600F004FF022301460622304656
:102BA0001192CDE90D134146CDE90F7704F020FBDA
:102BB000BBF1040F00F00E81013509EB450A5FFA05
:102BC00085FB5046002DDED0E0E75D4B1A6862B908
:102BD0005449D1F8F00040F40000C1F8F000D1F8F9
:102BE000F01001F400010B910B9961680132554D11
:102BF0004FF4804021F002011A60534A4FF4805391
:102C000001294FF059072A604FF480710CBF002250
:102C100040226B614FF480660023AA604FF40032BB
:102C2000A8612846EB606B626F602E61C5E90712F0
:102C300004F0C2FD22683F4BC4F884509A42AC6352
:102C4000C4F8805089D13E4B1A68002A00F0ED800C
:102C500000253E4E01320DF13408A9464FF0020A1C
:102C600030465FFA85FB1A60CDB9344B9B7A7BB94D
:102C700000F08EFE0746304600F092FE0A230D90CB
:102C80001095CDE90EA538464146119304F0B0FAEF
:102C9000013502365FFA85FB3046002DE5D000F0A5
:102CA00077FE0746304600F07BFEBBF1020F02467E
:102CB0004FF00A0341463846CDE90D2ACDE90F9978
:102CC00000F0B180119304F093FABBF1040FDFD14F
:102CD00063685A221E4D4FF4806623F002031D499B
:102CE0006A604FF48052012B4FF4804029604FF40A
:102CF00080710CBF00234023A8612846AB600023ED
:102D0000C5E904624FF40032EB606B62C5E907125B
:102D100004F052FDC4F88450AC63C4F8805013B082
:102D2000BDE8F08F00440258045801402458014087
:102D3000045C0140245C01408818002490180024A1
:102D40008C180024F022002458000240A718002408
:102D500058200024700002409D180024404A136847
:102D600063B94049D1F8F00040F48000C1F8F000A8
:102D7000D1F8F01001F480010A910A9961680133D9
:102D8000394D4FF4804021F002011360374A4FF46F
:102D9000805301294FF058072A604FF480710CBF0F
:102DA000002240226B614FF480660023AA604FF43A
:102DB0000032A86128466F602E61EB606B62C5E946
:102DC000071204F0F9FC2268C4F88450AC63C4F81C
:102DD0008050BCE663685722254D4FF4806623F08F
:102DE000020324496A604FF48052012B4FF4804063
:102DF00029604FF480710CBF00234023A86128464E
:102E0000AB600023C5E904624FF40032EB606B62F3
:102E1000C5E9071204F0D0FC2268C4F88450AC6302
:102E2000C4F880508FE608232DE70E49D1F8F00052
:102E300040F40000C1F8F000D1F8F01001F40001F6
:102E40000C910C9904E7D3F8F00040F48000C3F82B
:102E5000F000D3F8F03003F480030993099B84E673
:102E600088180024004402587822002428000240D8
:102E7000002200241000024010B5837886B004467A
:102E8000022B22D0032B1ED0012B1CD00023029337
:102E9000E378012B15D0022B13D0002303930023DA
:102EA0002046049300F074FD034620461C4600F0C3
:102EB00077FD01A903462046019304F099F906B075
:102EC00010BD0393EBE70293E2E711230293DFE7E0
:102ED00038B5054600F05CFD0446284600F060FD6C
:102EE00001462046BDE8384004F074BB70B5064684
:102EF0000D4600F04DFD0446304600F051FD2A1EFF
:102F00000146204618BF0122BDE8704004F068BBAE
:102F100070B5184D8AB00C462B7E68619BB10020BD
:102F200002210026002200230496CDE90001CDE90C
:102F30000223C4B1032C16D004F0FD03012B0AD0E8
:102F40006C760AB070BD0C4B28462B6001F004FC77
:102F500001232B76E3E710226946064801F056FC70
:102F60006C760AB070BD00226946024801F04EFC42
:102F7000E2E700BFB41800240074004010B51E4CF6
:102F800082B00B4662695278002A0CBF08220022E8
:102F9000012804D003281BD080B102B010BD10213D
:102FA000204601F01BFC63691B78002BF5D12046FD
:102FB000102102B0BDE8104001F0E4BB01462046FC
:102FC00001F00CFC636919780029E6D12046F0E78E
:102FD000CDE900212046002101F000FC102120460F
:102FE000DDE9002301F0FAFB636919780029D4D1E7
:102FF000204601F0C7FBDAE7B4180024284B02682A
:103000009A4200D07047274B0020D3F8E81030B523
:1030100041F00051244C89B00325627EC3F8E810CA
:10302000D3F8E81001F0005101910199D3F8E010B4
:1030300041F00101C3F8E010D3F8E030049503F04B
:10304000010305900293029B3AB1AA4205D002F017
:10305000FD02012A13D009B030BD6569023528464A
:1030600000F096FC034628461D4600F099FC0346F6
:1030700003A92846039304F0BBF8627EE7E764697E
:103080000434204600F084FC034620461C4600F031
:1030900087FC034603A92046039304F0A9F8DAE766
:1030A0000074004000440258B4180024B6EE007AC0
:1030B000016060EE200A0276F7EE007A437680ED3A
:1030C000020A60EE870AC0ED047A87EEA07A10B497
:1030D0000024C46044615DF8044B80ED017A7047C0
:1030E0000268037E128807EE902AFBEEC87A1BB1B5
:1030F000B7EE007A77EE677AD0ED056A90ED047A44
:1031000077EEE67A437E67EE877A0BB1F1EE677A67
:1031100090ED030A90ED017A77EEC07AA7EE270AC8
:1031200080ED030A704700BF30B5044685B04FF408
:1031300080751030ADF80820ADF80C100180A28227
:103140006582E5828DED000AADF80430FFF794FE4C
:1031500004F11400FFF790FE9DED000A204601994E
:1031600000F0D4FB00224FF6FF73E261238305B029
:1031700030BD00BF70B5067E044610307600FFF704
:10318000A7FE034676B2657E04F114001E436D006F
:1031900026766DB2FFF79CFE034620461D436576FA
:1031A00000F0D0FB237E002203F00303E261022B38
:1031B00006D0627E02F00302022A00D133B170BD54
:1031C000637E9B07FBD10123E36170BD4FF0FF33AA
:1031D000E36170BD098800220180C0F80220FFF77A
:1031E0004BBE00BF10B5044601700230627006F09D
:1031F000ADF900230722C4F814332271E370C4F838
:10320000103310BD704700BF49424FF4806202483E
:10321000C9B209F0E7BC00BFD01800242DE9F04185
:10322000DFF8808082B0B0241C4E1D4D0021304656
:103230008DF8074001340F46FFF758FE01220DF1CB
:1032400007012846E4B206F0BBF8394630468DF84F
:103250000770FFF74BFE01220DF10701284606F02B
:10326000AFF81023394630468DF80730FFF73EFEA1
:1032700001220DF10701284606F0A2F8012130468F
:10328000FFF734FE41468022284606F099F8B82C14
:1032900008F18008CAD102B0BDE8F081D41C002436
:1032A000D01C0024D01800242DE9F0470D46C34E51
:1032B000012482B035F8023B8146DFF810833046A6
:1032C000BF4F4FF0200A3380B470FFF7D5FD2B8835
:1032D0004046002588F80240A8F80030FFF7CCFDF2
:1032E000384606F041F829464046FFF7FFFD0A2020
:1032F000FFF726F921464046FFF7F8FD0A20FFF7C1
:103300001FF9AE23304629468DF80730FFF7EEFD52
:10331000224638460DF1070106F052F8304629469C
:103320008DF807A0FFF7E2FD22460DF107013846B0
:1033300006F046F8304629468DF80750FFF7D6FDCF
:1033400022460DF10701384606F03AF8B023294627
:1033500030468DF80730FFF7C9FD22460DF1070111
:10336000384606F02DF8C823294630468DF8073038
:10337000FFF7BCFD22460DF10701384606F020F8A4
:10338000294630468DF80750FFF7B0FD22460DF173
:103390000701384606F014F81023294630468DF808
:1033A0000730FFF7A3FD22460DF10701384606F06E
:1033B00007F84023294630468DF80730FFF796FD81
:1033C00022460DF10701384605F0FAFF8123294610
:1033D00030468DF80730FFF789FD22460DF10701D1
:1033E000384605F0EDFFFF23294630468DF80730BB
:1033F000FFF77CFD22460DF10701384605F0E0FF9E
:10340000A123294630468DF80730FFF76FFD22468D
:103410000DF10701384605F0D3FFA62329463046B3
:103420008DF80730FFF762FD22460DF1070138469F
:1034300005F0C6FFA823294630468DF80730FFF770
:1034400055FD22460DF10701384605F0B9FF3F232F
:10345000294630468DF80730FFF748FD22460DF12A
:103460000701384605F0ACFFA423294630468DF805
:103470000730FFF73BFD22460DF10701384605F006
:103480009FFFD323294630468DF80730FFF72EFDE6
:1034900022460DF10701384605F092FF29463046D5
:1034A0008DF80750FFF722FD22460DF1070138463F
:1034B00005F086FFD523294630468DF80730FFF703
:1034C00015FD22460DF10701384605F079FFF0237E
:1034D000294630468DF80730FFF708FD22460DF1EA
:1034E0000701384605F06CFFD923294630468DF890
:1034F0000730FFF7FBFC22460DF10701384605F0C7
:103500005FFF2223294630468DF80730FFF7EEFC97
:1035100022460DF10701384605F052FFDA2329460D
:1035200030468DF80730FFF7E1FC22460DF1070128
:10353000384605F045FF1223294630468DF80730FE
:10354000FFF7D4FC22460DF10701384605F038FF9D
:10355000DB23294630468DF80730FFF7C7FC2246AB
:103560000DF10701384605F02BFF294630468DF84E
:1035700007A0FFF7BBFC22460DF10701384605F016
:103580001FFFAF23304629468DF80730FFF7AEFC0A
:1035900022460DF10701384605F012FF29464FF487
:1035A0008062084809F01EFB4846FFF737FE064BCD
:1035B0001D605C7102B0BDE8F08700BFD41C002420
:1035C000D01C0024D0180024D81C0024E01C0024A7
:1035D0002DE9F04FA1F1200089B00491C1B208ADEE
:1035E0009DF848405E2905E90C006AD8684A9DF8B4
:1035F0001810B2F800E00EEB0103802B059360DC9D
:103600009DF819705688F319402B5ADC002F51D0C1
:103610005F4A07FB00F0079D6FF0004312790744F3
:103620000344A5F1020C002A5FFA8EF084F0010237
:1036300005EB430E039008BF23460CEB470018BF71
:103640001346F6B20CBF9246A246DFF848C102907C
:1036500001933EF8020F41B3012406F007073F2E05
:103660004FEAD60204FA07F7019C039B98BF002596
:103670007FB288BF0125D2016FEA0708002C46D12E
:10368000BAF1000F30D154465FEAD31903EB0207B9
:1036900006D12DB91CF8079008EA09090CF8079023
:1036A00001340133A142DBB2EED1029B01367345F6
:1036B000F6B2CED1364B059A04981A8009B0BDE80F
:1036C000F08F002009B0BDE8F08F5FEAD31B06D170
:1036D0002DB91CF809B047EA0B0B0CF809B00134FE
:1036E0000133A142DBB2E0D000FA04F919F4004F33
:1036F00003EB0209E9D05FEAD31BF0D1002DEED134
:103700001CF809B008EA0B0B0CF809B0E7E7BAF1AE
:10371000000F23D154460EE05FEAD31B06D12DB92A
:103720001CF809B008EA0B0B0CF809B0013401339E
:10373000A142DBB2B9D000FA04F919F4004F03EB4F
:103740000209E9D05FEAD31BF0D1002DEED11CF8BD
:1037500009B047EA0B0B0CF809B0E7E700245FEA71
:10376000D31903EB020806D12DB91CF8089047EADB
:1037700009090CF8089001340133A142DBB2EED103
:10378000029B01367345F6B27FF463AF92E700BF48
:10379000D81C0024D0180024F0B585B00C46097858
:1037A00002AD9DF8287085E80C0081B1064602E064
:1037B00014F8011F59B10097304695E80C00FFF747
:1037C00007FF23789842F3D0184605B0F0BD0023D8
:1037D000184605B0F0BD00BF014B19805A807047F4
:1037E000D81C0024024A0349034808F0F5BE00BF74
:1037F0000000002405320008D01C00249FED197A37
:10380000F0EE407A4B68B4EE470A70B5044608689B
:10381000F1EE10FA8E68CD682DED028B206048BF66
:10382000B0EE470A0869B0EE608A636084F8302021
:103830004B690A8B206163612283C4ED077AC4ED72
:10384000080AA660E56009F09DF8F0EE407AB0EE57
:10385000480AC4ED097A09F095F884ED0A0ABDEC2E
:10386000028B70BD95BFD63390F8303010B504464A
:10387000032B47D8DFE803F015243502FFF730FCAF
:1038800060EE006AD4ED077A94ED087A66EE806AFD
:1038900037EE677AE6EE877AB0EE670AC4ED0B7A08
:1038A00010BDFFF71DFCD4ED077A94ED087A37EED2
:1038B000677AE0EE077AB0EE670AC4ED0B7A10BDC6
:1038C000FFF70EFCD4ED077A94ED087A20EE000A9B
:1038D00037EE677AE0EE077AB0EE670AC4ED0B7A4E
:1038E00010BDFFF7FDFB94ED097AD4ED0A7A77EE6F
:1038F000C77AA0EE277AB0EE470A08F0D1FF84ED30
:103900000B0A10BD90ED0B0A10BD00BFB7EE007A98
:1039100001220346C7EE007A70B4002683B0C1F3DB
:1039200007250024ADF80410C660417010449D7056
:10393000DC701A709A809A71C3ED027A03B070BC81
:10394000FFF79ABA38B544790546837901306400A7
:1039500064B2B3B1FFF7BCFAB0FA80F35B0923435A
:10396000DBB2A3F17F026B71012A0ED9FF2B07D1C5
:10397000D5ED037A95ED027A77EE877AC5ED037A75
:1039800038BDFFF7A5FA43B2E9E70023EB6038BD85
:10399000024B027853F82200704700BF20D600087F
:1039A000024B427833F81200704700BF00D600087F
:1039B00010B485B00478074B0DF1100C0FCB0CEB55
:1039C00084040CE90F0054F8100C05B05DF8044BAA
:1039D000704700BF64D50008704700BF806B08B512
:1039E000FDF77EFF08BD00BF704700BF836B5A6DB7
:1039F00012F0500F5A6D10B51DD1196842F40072C3
:103A00005A650A6812F0080FCA681BD012F4406F9A
:103A10000DD1CA6894040AD45A6D22F480725A6592
:103A20005A6DD10403D45A6D42F001025A6518460A
:103A3000FFF7D2FF10BDD2060AD4DB6CBDE8104000
:103A4000DB6C18479007E7D01846FFF7C5FFF1E792
:103A50001846FFF7C9FF10BD806B08B5436D43F0F2
:103A600040034365836D43F004038365FFF7BCFFA8
:103A700008BD00BFF0B5002283B0019290F850203D
:103A8000012A00F01B81034601201A6883F85000C8
:103A90009468660700F189800C68C4F31305002D53
:103AA00040F08E80C4F3846C00FA0CF04C681F2642
:103AB000D569A7093440284302F1300507F00C0707
:103AC000A640D0610CFA04F4785920EA060020439D
:103AD00078519068450771D4956815F0080548D16C
:103AE0000C6802F1140607208F684FEAD45CC4F317
:103AF00004540CF0040C00FA04FE07FA04F4C64F58
:103B00005CF8060020EA0E0020434CF806003868F6
:103B100000F07040B0F1805F00F0C880D068D668D7
:103B200010F0100F486940F0E980C6F38206760075
:103B300000FA06F60F69042F00F0C38002F160045A
:103B4000086854F827C000F0F8400CF0004C40EA38
:103B50000C00304344F827000E694F7E54F82600CD
:103B6000012F20F0004008BF4FF00045054344F806
:103B700026509068C40716D4CE68086806F0180767
:103B8000A64CD2F8C050FC40C0F31307DFF8B8C20F
:103B9000044025EA0705664544EA0504C2F8C0402A
:103BA00046D0002816DB002003E05A6D42F02002C8
:103BB0005A65002283F8502003B0F0BD9068D8E722
:103BC00094FAA4F5B5FA85F5C4F3846C05F01F04E6
:103BD000A0406BE792498A4200F0B68001F58071FF
:103BE0008A4200F0B1808F4E8F4DA968B46801F011
:103BF000E076E44304F00104002C00F0B3808B4C29
:103C0000A04200F0E6808A4CA04200F01F81894C5F
:103C1000A042C8D14902C6D482498A42C3D1AA6807
:103C2000002022F0E072324342F48002AA60C0E732
:103C3000002F69D090FAA0F4B4FA84F4013404F0AF
:103C40001F04092C00F2A38090FAA0F4B4FA84F4C3
:103C500090FAA0F50126B5FA85F501343544A4069D
:103C600005F01F0504F0F84406FA05F52C4390FA18
:103C7000A0F0B0FA80F0304400F01F0000EB4000EC
:103C800000052043C70D02F11405C0F304504FF0A6
:103C9000070C07F004078E680CFA00FC7C5986407C
:103CA00024EA0C003043785108687AE7D6684869FE
:103CB000C6F38206760000FA06F63BE7022003B060
:103CC000F0BD106E0D6800F0F840AC06B0EB856FEB
:103CD00030D0506E00F0F840844226D0906E00F054
:103CE000F84084422BD0D06E00F0F84084427FF43C
:103CF00040AFD06E20F00040D0663AE7760806F07C
:103D0000080600FA06F615E7800E441C04F01F06AC
:103D1000092E2DD8A406012506EB460004F0F84430
:103D200005FA06F600053443ABE7506E20F000407C
:103D30005066D3E7106E20F000401066C9E7906E21
:103D400020F000409066CEE73B49354E3B4C0D4697
:103D50008968B768A46801F0E0763C43E44304F066
:103D6000010449E75A6D012042F020025A6520E71C
:103D700006EB46000127A5061E3807FA06F605F0F1
:103D8000F8450005354340F0007028437AE790FA83
:103D9000A0F5B5FA85F590FAA0F40126B4FA84F4FA
:103DA00001353444AD0604F01F0405F0F84506FA69
:103DB00004F4254390FAA0F4B4FA84F4344404F0F3
:103DC0001F0404EB4404A4F11E00000540F0007041
:103DD000DBE708023FF5E7AE12498A427FF4E3AE23
:103DE000174AA9681268174821F0E0719209314317
:103DF000A0FB020241F400019209A9605200019265
:103E0000019A002A3FF4CFAE019A013A0192019A39
:103E1000002AF9D1C7E600BF0010005CFFFF0F00C9
:103E2000002002400060025800630258000084CB6A
:103E3000000052C70000B8CF00230240002102401A
:103E400004000024632D3E050000FF4711F0807040
:103E50007FF4A9AE05498A427FF4A5AEAA6822F094
:103E6000E072324342F08072AA60A2E6006002581B
:103E700003689A68D20701D5002070479968214AE3
:103E8000114270B504462AD199681F4A0A4042F08F
:103E900001029A6004F010FC23681C4A0546934214
:103EA00026D002F58072934222D0194A9268164EAB
:103EB0000AE09A68324042F001029A6004F0FCFB8A
:103EC000401B02280BD823681A68D20717D49A68B7
:103ED000D107EED504F0F0FB401B0228F3D9636D47
:103EE000012043F010036365A36D0343A36570BD18
:103EF000084A9268D006DAD0074A9342D7D1002008
:103F000070BD00BF3F000080C0FFFF7F0020024067
:103F10000063025800230240002102402DE9F041D5
:103F20003B4D044600680F461646A84219D0394B4F
:103F3000984216D0384DAB688068420716D494F882
:103F40005020012A12D003F01F080123B8F1090FF5
:103F500084F850300DD90023012084F85030BDE89A
:103F6000F0812E4DAB6880684207E8D50220BDE89D
:103F7000F08140F2212323FA08F3DB4313F001051B
:103F8000E9D12046FFF774FF00283AD1626D244B37
:103F90002568134043F480736365B8F1000F02D0C5
:103FA0001C4B9D4203D0636D23F480136365636DE6
:103FB00013F4805329D0A36D23F00603A365E06CAE
:103FC0004FF0000CDFF868E033463A461C21154FED
:103FD000154EC0F83CE00764C664296005F1400155
:103FE00084F850C06E6846F010066E6003F0AEFDB7
:103FF00022680E4B91680B4043F004039360BDE8C8
:10400000F08184F85050BDE8F081A365D7E700BF88
:1040100000200240002102400063025800230240B9
:10402000FEF0FFFFDD390008593A0008C0FFFF7FAE
:10403000ED39000838B503689A68910702D59B6886
:10404000002038BD9A68D20723D59A68044602F04A
:104050000D02012A08D0636D012043F0100363654F
:10406000A36D0343A36538BD986803210A4A024043
:1040700042F002029A60196004F01EFB054604E05B
:1040800004F01AFB401B0228E5D823689B68DB0775
:10409000F6D4002038BD00BFC0FFFF7F38B55A4AB4
:1040A00004460368934249D002F58072934245D09A
:1040B000564B9B6813F4403F14BF01230023EBB120
:1040C00001F0E4FE63680546B3F5003F00F08B8025
:1040D000B3F5403F73D0B3F5803F00F0848004F027
:1040E00003FB41F2030398421FD8494B9D4260D91C
:1040F0002268936843F48073936038BD4FF40020C6
:1041000002F094FF63680546B3F5101F75D01DD902
:10411000B3F5201F5BD0B3F5301FE0D104F0E4FA13
:1041200041F20303984244D92D0A3A4B9D422ED8BE
:104130002268936823F44073936038BD364B9B68C4
:1041400013F4403F14BF01230023B8E7B3F5E01F89
:104150003FD004D9B3F5001FC1D14509BFE7B3F57E
:10416000801F06D00AD9B3F5A01F02D0B3F5C01F37
:10417000B5D19B0C5B00B5FBF3F5B0E7B3F5002FB1
:10418000F7D023F40022B2F5802FF2D0A7E7234B1B
:10419000234A2B4493421ED9224B234A2B44934259
:1041A000226893682BD823F4407343F40073936020
:1041B00038BD2268936823F48073936038BD850806
:1041C00004F092FA41F203039842AED88DE7C50994
:1041D00085E7050983E72268936823F4407343F475
:1041E0008073936038BD1B0CB5FBF3F504F07CFACB
:1041F00041F20303984298D877E785096FE743F4C3
:104200004073936038BD00BF002002400063025835
:10421000002D3101105E5F0000230240EFA1A0FFDE
:104220000F5E5F00DF4341FF1FBCBE0070B500237F
:1042300082B00193002800F0CF80456D0446002D28
:1042400000F0B980226893689D0003D59168704B97
:104250000B4093609368D80015D46E4B90681B6830
:104260006D4D9B096D49A5FB035301409B0941F02E
:10427000805191600193019B2BB1019B013B019304
:10428000019B002BF9D19368D90024D4636D0125DB
:1042900043F010036365A36D2B43A365936813F08C
:1042A000040F636D1DD1DB061BD4636D23F4817392
:1042B00043F0020363659368DE0728D4584B9A42A3
:1042C00017D003F580739A4213D0564B9B68D907D9
:1042D0001DD4554A15E09368002513F0040F636D53
:1042E000E1D0636D012543F010032846636502B0F9
:1042F00070BD4B4A4D4B92689B681343D80706D458
:104300004B4A9368616823F47C130B43936004F079
:10431000EBF941F20303A1689842237F51D8667DEF
:104320001A04206B42EA463202430A43012B03D1AE
:10433000236A013B42EA4342636A23B103F4787380
:10434000A16A0B431A4323683A49D86801400A43DB
:10435000DA609A6812F0040F9A681CD112071AD416
:10436000D968354A207D0A40E16A42EA80320A4330
:10437000DA6094F83820012A3AD01A6922F0010252
:104380001A611A692046616B22F070420A431A6171
:10439000FFF784FE2368E268012A21D01A6B22F01D
:1043A0000F021A63636D284623F0030343F00103F1
:1043B000636502B070BDFDF747FAA56584F85050FB
:1043C00040E71029ABD1607D1A04216B42EA4032EC
:1043D0000A4342F01C02A9E70125284602B070BD3D
:1043E000196BA26921F00F01013A0A431A63D9E758
:1043F0001869124ED4E910210640A06C0A43E16B03
:104400003243024342EA014242F001021A61B8E734
:10441000C0FFFF5F04000024632D3E05C0FFFF6F57
:104420000020024000600258006302580021024050
:104430000023024003C0F0FFFCBFFFFF1EF800FC9A
:10444000F0B50D4690F8501083B000260129019672
:104450003ED001230446174680F85030FFF7EAFDAE
:10446000636DE0B91C4E07F08042216805F4803589
:104470001E401A4B1A4F46F0020666658E6833409E
:1044800013432B4343F000438B608B68002B0EDB00
:10449000636D23F0030343F00103636502E043F01F
:1044A00010036365002384F8503003B0F0BD019B16
:1044B00001330193019BBB42E7D9636D00220120C8
:1044C00023F0120384F8502043F010036365ECE7F7
:1044D000022003B0F0BD00BFFDEEFFFFC0FFFE3FB6
:1044E000FF955A55F0B490F850200E68012A49D033
:1044F0000346294A01201C6883F85000944208D0E2
:104500005A6D002142F0200283F850105A65F0BC29
:104510007047224DAA6852070AD5A2685A6D012039
:1045200042F020025A65002283F85020F0BC704708
:10453000A06810F00400F1D1C6B1DFF868C04F6880
:10454000DCF8082022F440423A43CCF80820A46862
:10455000AA682243D40713D48A68DCF808401049BB
:10456000164321400E43CCF80860DCE70D498A6809
:1045700022F440428A60A068AA680243D00704D5AA
:104580000020D0E70220F0BC70478C683046044A17
:1045900022408A60C7E700BF00200240002102409D
:1045A000E0F0FFFF0023024007490002074BCA6802
:1045B00000F4E06010B44FF6FF0422405DF8044BB5
:1045C00010430343CB60704700ED00E00000FA05A4
:1045D000194BDB68C3F3022330B4C3F107051C1D7C
:1045E000042D28BF0425062C19D9033B4FF0FF34B6
:1045F0009C4022EA04024FF0FF34002804FA05F43C
:1046000021EA040101FA03F141EA02010ADB09018E
:104610000A4BC9B2034483F8001330BC7047002230
:104620001346E8E700F00F000901054BC9B2034447
:10463000197630BC704700BF00ED00E000E100E0FB
:10464000FCEC00E0002807DB00F01F01012340091B
:10465000024A8B4042F82030704700BF00E100E082
:1046600000280DDB4309012200F01F00054920331B
:1046700002FA00F041F82300BFF34F8FBFF36F8FB2
:10468000704700BF00E100E00138B0F1807F0DD23B
:10469000074B0022072130B4F025064C5860104625
:1046A00084F823509A60196030BC7047012070472D
:1046B00010E000E000ED00E0BFF35F8F044A00204F
:1046C0000449536A23F4803353624860704700BF43
:1046D00000ED00E090ED00E0064A40F00100064BDE
:1046E0005860536A43F480335362BFF34F8FBFF374
:1046F0006F8F704700ED00E090ED00E0124A4378C4
:1047000093600178E9B1436870B4D360C37A047BE5
:104710001B06857A867B43EA0473447B0B43017A4C
:1047200043EAC543C57B43EA8443447A43EA4643AC
:1047300043EA054343EA042343EA410370BC13619F
:104740007047D1601161704790ED00E0704700BF85
:1047500008B5FFF7FBFF08BD88B110B50379044623
:1047600003F0FF023BB10023022101222171184610
:104770002361227110BD4271FEF740FCF3E7012076
:10478000704700BF4279012A26D003460122006803
:1047900030B401F010040225A2401D7104682243C8
:1047A0000260026871B902F03E02AA4203D1426877
:1047B00042F00102426000220121104619715A7133
:1047C00030BC704702F47812B2F5003FF3D1426872
:1047D00042F002024260EEE70220704710B4006827
:1047E00083B000240194019051B9019908310A4421
:1047F0000192019A0020136003B05DF8044B7047EA
:10480000019914310A440192F3E700BF4379D1F8CA
:1048100000C0012B00F096800223BCF1040F2DE9AB
:10482000F04116464FF0010204460D4642710371F5
:104830003ED006F010020368296901292ED0EE68E7
:104840000727A96807FA02F0DF6B31436D6827EA92
:10485000000740F6FE7641EA0C014FF48040954097
:104860009640914090404FF0000C3943C027D963E7
:1048700007FA02F11A68012722EA000260461A606C
:104880001A6822EA06022A431A601A6822EA01021A
:104890001A60277184F805C0BDE8F0811F26986B67
:1048A00069699640914020EA060001439963C6E792
:1048B000D6B903F001FFDFF89080074604E003F06B
:1048C000FBFEC01B012834D823685B6B13EA080F7A
:1048D000F5D1012003F0F6FE2368AA691A640DE001
:1048E00003F0EAFE012824D823685B6B002BF7DB7A
:1048F000012003F0E7FE2368AA695A6406F010025B
:1049000040F2FF3C986CFF21EF690CFA02FC01FABF
:1049100002F6296A20EA0C009740D5F800C0384317
:10492000986401FA02F0D96C21EA06010143D964C6
:1049300082E72369032243F00803104623612271B2
:10494000BDE8F081022070470080002070B5044669
:104950000D4616466A1C23682CD19A69900727D405
:104960009A69D106F9D59A699106FCD520221021C1
:10497000D961DA619A69900701D500229A629A6931
:10498000D10703D49A6942F001029A615A68002162
:104990001B4E2025012032405A60636C84F8401081
:1049A00043F00403636484F8415084F8421070BDFE
:1049B000002070BD9A699207FAD49A69D0061BD478
:1049C00003F07AFE801BA84201D8002DC2D1636C8F
:1049D0002021002201200B4384F84020636484F8E6
:1049E000411084F8422070BD03F066FE801B8542B2
:1049F000EDD3002DEBD0236899698A06F4D5B5E78D
:104A000000E800FE70B504460D4616462368996915
:104A10008A0649D49969CA0626D5681C38D19A698C
:104A20009106FCD520221021D961DA619A6990079C
:104A300001D500229A629A69D10703D49A6942F09B
:104A400001029A615A680021184E20250120324047
:104A50005A60636C84F8401043F00403636484F884
:104A6000415084F8421070BD03F026FE801BA8421E
:104A700001D8002DCAD1636C2021002201200B43F4
:104A800084F84020636484F8411084F8422070BDAB
:104A90009A699206C6D403F00FFE801B8542EAD3C2
:104AA000002DE8D02368B8E7002070BD00E800FEC4
:104AB00000284DD0F8B590F84130044603F0FF02CD
:104AC000002B40D02421E068D4E9003284F8411062
:104AD0000128196822F0706221F0010119601A6141
:104AE0009A6822F400429A60A26828D042F40442F4
:104AF00002289A6002D14FF400625A605A6800217D
:104B000014482027A6691043D4E9042558602A4395
:104B1000D868E56942EA0622266A20F40040354357
:104B2000D8600846DA601D601A6842F001021A6017
:104B3000616484F84170216384F84210F8BD42F446
:104B400000429A60DAE780F84020FDF761FDB9E79E
:104B500001207047008000022DE9F047984690F848
:104B60004130089E202B40F08A8090F84030044667
:104B7000012B00F0848001238946174680F84030DD
:104B800003F09AFD054604E003F096FD401B19284A
:104B900078D82368986910F40040F5D110222121BB
:104BA000676284F8411084F842206064A4F82A8087
:104BB000628D606392B2FF2A72D8618DC9F30907D2
:104BC0005A68DFF838C189B24A4802EA0C025FFA33
:104BD00081FC21853A4342EA0C4210435860DFF8D9
:104BE00024814FF0FF0ADFF82091638D2A46314679
:104BF00020469BB2002B30D0FFF7A8FE002875D1CD
:104C0000606A216810F8012B238D8A62628D013B56
:104C10006062013A9BB292B223856285628D92B244
:104C2000002BE2D1002AE0D0701C45D18B691A0616
:104C3000FCD5638D9BB2FF2B4AD94B682A46A4F85A
:104C400028A0204603EA08033B4343EA09034B60DC
:104C50003146638D9BB2002BCED1FFF7D3FE0028E7
:104C600044D123682021244DD9615A682A405A60D2
:104C700084F8411084F8400084F8420000E00220EB
:104C8000BDE8F087636C2021002201200B4384F8EB
:104C90004020636484F8411084F84220BDE8F08726
:104CA0005A68C9F309071549FF200A4014492085AD
:104CB0003A431143596092E78B691B06B9D403F05C
:104CC000FBFC401B8642DDD3002EDBD02168ABE726
:104CD000628D4B6892B203EA0803D0B2228543EAA0
:104CE00000433B4343F000734B607EE70120BDE887
:104CF000F08700BF0020008200E800FE009800FC62
:104D00000020FF81009C00FC0000FF0190F8412082
:104D1000202A21D1034670B4D5B290F84020012A50
:104D20001CD01A682420002683F8410014683046FD
:104D300024F001041460146824F48054146014688E
:104D400021431160116841F00101116083F8415065
:104D500083F8406070BC704702207047022070BC2E
:104D6000704700BF90F84120202A20D1034670B43C
:104D7000D6B290F84020012A1BD01A6824200025C2
:104D800083F841001468284624F001041460146874
:104D900024F4706444EA01211160116841F00101BA
:104DA000116083F8416083F8405070BC7047022066
:104DB0007047022070BC7047B24B016899422DE9E0
:104DC000F04105461FD0203399421CD003F578737B
:104DD000994259D02033994256D003F578739942BD
:104DE00000F020812033994200F01C8195F8913029
:104DF000A54E03F0FF026BB9284685F89020FDF719
:104E00002DFE296806E0A14E95F8913003F0FF02CF
:104E1000002BF1D09E4B9F481B680A68A0FB030340
:104E200022F480321B0B0A609B0023B30C68013B09
:104E300014F48034F9D1EB680222012B85F891201B
:104E400000F01A81934219BF17460320232022271E
:104E500015BF4FF0010C4FF0210C00222022AB684F
:104E6000013B042B00F25781DFE813F0D100110061
:104E7000D8001000D400D5F89430012043F040034E
:104E8000C5F89430BDE8F081834EBDE73A464FF453
:104E900000682B6A3260002B44D07A4B994200F0B4
:104EA00029817E48081AB0FA80F04009002840F0B5
:104EB00021817B4B994200F017812033994200F009
:104EC0001381784B994200F009812033994200F018
:104ED0000581754B994200F01381744B994200F0A3
:104EE0001581AB69B3F5002F00F0EE80AB6A00EBE3
:104EF00080002A6AB3F1806F4FEA40030CBF0221A1
:104F0000012102FB01F21202B3FBF2F3684AA2FB99
:104F10000312D20802EB8201A3EB4103092B08BF65
:104F200001326A626B6833F002032B6D40F09F80A0
:104F3000012B14BF4FF40074002403F0D5FB6B6801
:104F4000B0F5005FD5E9111243EA01037FD31A439C
:104F5000EB6CE96A1A43A8692B680A436969AF6A6E
:104F60000A431968D5F824C0024352483A4308401E
:104F7000296918600A4319684FF220004E4F0A430E
:104F800042EA0C5242EA080222434C4C1A60596829
:104F9000EA690C40296B11436A6B5C6011435C68E1
:104FA0006A6E2143EC6D22432C6E5960224399684E
:104FB0006C6D0F40A96D013C01399F6022439C68D4
:104FC00042EA0122A96E2243EC6E9A6041EA040291
:104FD000D9686C6F0840296F42EA0442294C0139B4
:104FE000D860D868A34242EA012242EA0002DA60AD
:104FF0001AD02D4A934217D000230122C5F89430CD
:10500000184685F8903085F89120BDE8F0814FF47E
:1050100080683EE702464FF400683AE762464FF484
:10502000006836E7264EEFE6736C23F001037364E5
:1050300095F83830012BDFD1D5E90F23013A43EA47
:1050400002137364736C43F001037364D4E7E96C77
:105050001A4368690A43E96A2B680A43AF69196809
:10506000024318483A430840D5E909C181E7012BBA
:1050700008BF4FF4007460E7132012274FF0110CA3
:105080001022ECE60458014000540058005801403A
:10509000040000241BECCB95005C01402458014027
:1050A000045C01400460014004540058245400583A
:1050B000CDCCCCCC10C005F00080F8FFF01FFFFF76
:1050C0000060014010C005F800EB8000296A6A6D9D
:1050D000430002FB01F2B3FBF2F317E74FF4007059
:1050E00001F0A4FF2968F4E64FF4007001F09EFF80
:1050F0002968E6E64FF4807001F098FF2968D8E649
:105100004FF4806001F092FF2968E6E64FF40060FA
:1051100001F08CFFE5E64FF00008BAE60229F8B589
:10512000044635D9C81E012830D8656800204FF4E0
:105130000036236735F002054FF4802560640CBF0C
:105140000127074604294FF6FF7127650CBF012789
:105150000D27E064E065A765A0666167C4E918658E
:10516000032A13D8DFE802F0484F553723684B4A2B
:10517000934205D002F1C052A2F58232934205D18A
:105180006368012B02D1636C002B30D00120F8BD85
:1051900045680020236735F002056064E0644FF441
:1051A000803508BF0646A0664FF6FF7018BF01267F
:1051B000E565606713F001002665E7D14D1E012DFE
:1051C0002ED84FF40035C4E91850032ADED8DFE8A2
:1051D00002F05A4B3B315B01E02180226365A16400
:1051E000E26603F081FA94F83830012BBED02046F5
:1051F000BDE8F840FFF7E0BD1B0180214022636558
:10520000A164E266EDE780225B01A2646365E26669
:10521000E7E75B01C02180226365A164E266E0E705
:105220004FF48025C4E91805032AAFD8DFE802F05F
:105230002B1C0C025B08E02080219A01A0645B011A
:10524000E166C4E91523CCE75B08C025802002296C
:105250004FEA8312A5644FEA4313E066C4E91523BD
:10526000BFD10823A366BCE75B08802202294FEA6E
:105270008310A2644FEA4313E266C4E91503B0D178
:105280001023A366ADE75B08802040215A01A0648B
:105290001B01E166C4E91523A3E700BF04580140E0
:1052A0002DE9F8430F460446154603F005FA002F92
:1052B00062D0B5FA85F84FEA5818002D5CD094F802
:1052C0009130012B5FFA83F951D194F89030012B82
:1052D0004DD0424606464FF0120CD4F8800065F3DC
:1052E0000F022B46C4F89480394665F31F42324DB5
:1052F00084F89090E267314AA76784F891C005640A
:10530000C2642F4D2268C0F850801C32C56302F081
:105310001DFC00283ED1636C082B636831D0052149
:1053200061202268023B012B98BF014613690B43A1
:105330001361136843F40033136006E003F0BCF913
:10534000831BB3F57A7F2AD82268556915F4E025C6
:10535000F4D01368DB0303D4136843F48033136081
:105360004FF00009484684F89090BDE8F8834FF06C
:1053700002094846BDE8F8834FF001094846BDE8F8
:10538000F88323F00202012A0BBF152105217120A9
:105390006120C6E7484684F89080BDE8F883D4F8D9
:1053A00094304FF0030984F8905043F0400348468E
:1053B000C4F89430BDE8F883F95400087555000826
:1053C00095540008F8B500294FD0B2FA82F513467B
:1053D0006D09002A49D090F891200446012AD6B2DE
:1053E00040D190F89020012A3CD02F4680F8906060
:1053F00081674FF0220C63F30F07C0F894500A4600
:10540000D0F8840063F31F471E4984F891C0E76712
:1054100001641D491D4FC164216805651C31C763C6
:1054200002F094FBD0B923681A68D20303D41A6837
:1054300042F480321A60626C082A626818D0052033
:105440006125023A1969012A98BF284600250143BF
:105450002E4619611A6842F400321A60304684F808
:105460009050F8BD02263046F8BD01263046F8BD02
:1054700022F0020101290BBF1520052071256125AD
:10548000DFE700BF655500087555000805550008A1
:10549000704700BF38B5C369806BB3F5807F19D002
:1054A00003680024416C1A680829A0F87E4022F4A1
:1054B00000321A60426810D06FF061056FF0050489
:1054C000023A1969012A98BF2C4601252140196129
:1054D00080F89150FFF7DCFF38BD22F0020101296E
:1054E0000BBF6FF071056FF061056FF015046FF081
:1054F0000504E5E7704700BF806B08B5FFF7FAFFCA
:1055000008BD00BF38B5C369806BB3F5807F19D083
:1055100003680024416C1A68082922F400321A60DA
:105520004268A0F87E4010D06FF061056FF005046E
:10553000023A1969012A98BF2C46012521401961B8
:1055400080F89150FCF7A6FE38BD22F00201012937
:105550000BBF6FF071056FF061056FF015046FF010
:105560000504E5E7806B08B5FCF77EFE08BD00BFCB
:10557000704700BF10B5846B03F00CF8022823D0ED
:10558000D4F89420216842F08002134B1348C4F8E9
:1055900094201B680A68A0FB030322F400321B0B53
:1055A0000A600A689B0022F480320A606BB10A68C4
:1055B000013BD203FAD401220023204684F8912033
:1055C000A4F87E30FFF7D4FF10BDD4F8943043F038
:1055D0004003C4F89430EEE7040000241BECCB95A4
:1055E000002800F0EA81F8B503680446D9072ED5F3
:1055F000B2490A69896A02F03802102A00F004816F
:10560000182A00F0FC806368B3F5803F00F0248125
:10561000002B00F06281B3F5A02FA84B1A6800F0B0
:105620003C8222F480321A601A6822F480221A60C6
:1056300003F042F8A14E054605E003F03DF8401B9B
:10564000642800F2488133689B03F6D523689807E5
:1056500000F18980D90630D5984A1369926A03F01F
:105660003803082B00F0E080182B00F0D880E369A5
:10567000002B00F06F81914B1A681E4642F08002A9
:105680001A6003F019F8054605E003F015F8401B11
:10569000022800F220813368DB05F6D503F024F8F8
:1056A00041F20303984200F21A827368226A23F0DF
:1056B000F84343EA8263736023681D0717D5636963
:1056C000002B00F021817D4B5A6F1E4642F00102F3
:1056D0005A6702F0F1FF054605E002F0EDFF401BBE
:1056E000022800F2F880736F9807F6D523689A06AF
:1056F00017D5A369002B00F01A81704B1A681E465B
:1057000042F480521A6002F0D7FF054605E002F02D
:10571000D3FF401B022800F2DE8033689F04F6D5D9
:105720002368590700F19E80636AD3B1634A116907
:1057300001F03801182970D0022B1368154623F0A8
:105740008073136000F0438102F0B6FF044605E069
:1057500002F0B2FF001B022800F2BD802B689B0103
:10576000F6D40020F8BD554A1369926A13F0380345
:105770002AD1524BE1681B685A0701D500294CD049
:105780004E4A1368164623F019030B43136002F0C8
:1057900093FF054605E002F08FFF401B022800F250
:1057A0009A8033685B07F6D502F09EFF41F203034F
:1057B00022699842736800F2F98023F47C3343EA4B
:1057C00002337360236845E7182B00F0EB80E26832
:1057D000002A00F0D38039490B680E4623F01903E4
:1057E00013430B6002F068FF054604E002F064FF1B
:1057F000401B02286FD833685F07F7D5D4E701F064
:10580000030102297FF4FFAE2C4A126892037FF550
:105810001EAF6268002A7FF41AAF0120F8BD02F0C3
:105820000302012A7FF423AF244B1B68DA0502D55B
:10583000E369802BF1D102F057FF41F203031F4AC5
:105840009842216A00F2BB80536823F0F84343EA90
:1058500081635360236830E7184A136843F4803348
:105860001360E5E6164B1A681E4642F480721A6011
:1058700002F022FF054604E002F01EFF401B6428F0
:1058800029D83368DA05F7D5A368012B00F03081F9
:10589000002B00F00A81052B084B1A6F00F02E81B7
:1058A00022F001021A671A6F22F004021A6702F04E
:1058B00003FF024E41F28837054608E000440258D3
:1058C0000048025802F0F8FE401BB84203D8336F7C
:1058D0009B07F7D528E70320F8BD8C4B1A681E46B6
:1058E00022F480321A601A6822F480221A6002F0D0
:1058F000E3FE054604E002F0DFFE401B6428EAD820
:1059000033689F03F7D4A1E6804B5A6F1E4622F0FE
:1059100001025A6702F0D0FE054604E002F0CCFE18
:10592000401B0228D7D8736F9907F7D4DEE6774B70
:105930001A681E4622F480521A6002F0BDFE054627
:1059400004E002F0B9FE401B0228C4D83368980472
:10595000F7D4E5E66D4B1A681E4622F080021A6005
:1059600002F0AAFE054604E002F0A6FE401B022853
:10597000B1D83368DF05F7D423689EE6634B1A6815
:105980001E4622F001021A6002F096FE054604E06F
:1059900002F092FE401B02289DD833685807F7D4C6
:1059A000236857E691077FF412AFE2E623F0FE4347
:1059B00043EA0263736023684CE601207047D368B2
:1059C00023F07C5343EA0163D360236875E602F059
:1059D00073FE064605E002F06FFE801B02283FF6CC
:1059E0007AAF2B689901F6D4AA6A494BA06A134092
:1059F000E26A48490343454E43EA0213AB62276B10
:105A0000D4E90D32013F501E013BE26BC7F308079A
:105A10005B020004013A9BB200F4FE00120603434D
:105A200002F0FE423B4313432B63EB6A23F0010376
:105A3000EB626A6BA36C114041EAC3016963EB6AD4
:105A4000226C23F00C031343EB62EB6A626C23F0CD
:105A500002031343EB62EB6A43F48033EB62EB6ABD
:105A600043F40033EB62EB6A43F48023EB62EB6AAE
:105A700043F00103EB622B6843F080732B6002F06C
:105A80001BFE044605E002F017FE001B02283FF64D
:105A900022AF33689A01F6D563E642F480221A6099
:105AA0001A6842F480321A60C2E5184B41F2883716
:105AB0001A6F1E4622F001021A671A6F22F00402C2
:105AC0001A6702F0F9FD054605E002F0F5FD401BFE
:105AD000B8423FF600AF336F9807F6D424E6F36878
